{
  "contractName": "Cert",
  "abi": [
    {
      "inputs": [
        {
          "internalType": "string",
          "name": "",
          "type": "string"
        }
      ],
      "name": "count",
      "outputs": [
        {
          "internalType": "uint256",
          "name": "",
          "type": "uint256"
        }
      ],
      "stateMutability": "view",
      "type": "function",
      "constant": true
    },
    {
      "inputs": [
        {
          "internalType": "string",
          "name": "sid",
          "type": "string"
        },
        {
          "internalType": "string",
          "name": "sname",
          "type": "string"
        },
        {
          "internalType": "string",
          "name": "scourse",
          "type": "string"
        },
        {
          "internalType": "string",
          "name": "jdate",
          "type": "string"
        }
      ],
      "name": "enrollStudent",
      "outputs": [],
      "stateMutability": "nonpayable",
      "type": "function"
    },
    {
      "inputs": [
        {
          "internalType": "uint256",
          "name": "_id",
          "type": "uint256"
        }
      ],
      "name": "getStudentDetails",
      "outputs": [
        {
          "internalType": "string",
          "name": "",
          "type": "string"
        },
        {
          "internalType": "string",
          "name": "",
          "type": "string"
        },
        {
          "internalType": "string",
          "name": "",
          "type": "string"
        },
        {
          "internalType": "string",
          "name": "",
          "type": "string"
        }
      ],
      "stateMutability": "view",
      "type": "function",
      "constant": true
    },
    {
      "inputs": [],
      "name": "getNumStudents",
      "outputs": [
        {
          "internalType": "uint256",
          "name": "",
          "type": "uint256"
        }
      ],
      "stateMutability": "view",
      "type": "function",
      "constant": true
    },
    {
      "inputs": [
        {
          "internalType": "string",
          "name": "_id",
          "type": "string"
        },
        {
          "internalType": "string",
          "name": "_cname",
          "type": "string"
        }
      ],
      "name": "upload",
      "outputs": [],
      "stateMutability": "nonpayable",
      "type": "function"
    }
  ],
  "bytecode": "0x608060405234801561001057600080fd5b50610e2a806100206000396000f3fe608060405234801561001057600080fd5b50600436106100575760003560e01c80630dc641e61461005c578063202e49361461008c57806386a9b364146100a8578063a9be87ec146100db578063b4a61678146100f9575b600080fd5b610076600480360381019061007191906108e2565b610115565b6040516100839190610944565b60405180910390f35b6100a660048036038101906100a1919061095f565b610143565b005b6100c260048036038101906100bd9190610a03565b6102c0565b6040516100d29493929190610ab8565b60405180910390f35b6100e36105f5565b6040516100f09190610944565b60405180910390f35b610113600480360381019061010e9190610b19565b6105ff565b005b6002818051602081018201805184825260208301602085012081835280955050505050506000915090505481565b6002826040516101539190610c2c565b9081526020016040518091039020600081548092919061017290610c72565b919050555060016002836040516101899190610c2c565b90815260200160405180910390205411156102bc5760005b6000805490508110156102ba57826040516020016101bf9190610c2c565b60405160208183030381529060405280519060200120600082815481106101e9576101e8610cba565b5b906000526020600020906004020160000160405160200161020a9190610ddd565b604051602081830303815290604052805190602001201415801561029e57508160405160200161023a9190610c2c565b604051602081830303815290604052805190602001206000828154811061026457610263610cba565b5b90600052602060002090600402016002016040516020016102859190610ddd565b6040516020818303038152906040528051906020012014155b6102a757600080fd5b80806102b290610c72565b9150506101a1565b505b5050565b606080606080600080805480602002602001604051908101604052809291908181526020016000905b82821015610563578382906000526020600020906004020160405180608001604052908160008201805461031c90610d18565b80601f016020809104026020016040519081016040528092919081815260200182805461034890610d18565b80156103955780601f1061036a57610100808354040283529160200191610395565b820191906000526020600020905b81548152906001019060200180831161037857829003601f168201915b505050505081526020016001820180546103ae90610d18565b80601f01602080910402602001604051908101604052809291908181526020018280546103da90610d18565b80156104275780601f106103fc57610100808354040283529160200191610427565b820191906000526020600020905b81548152906001019060200180831161040a57829003601f168201915b5050505050815260200160028201805461044090610d18565b80601f016020809104026020016040519081016040528092919081815260200182805461046c90610d18565b80156104b95780601f1061048e576101008083540402835291602001916104b9565b820191906000526020600020905b81548152906001019060200180831161049c57829003601f168201915b505050505081526020016003820180546104d290610d18565b80601f01602080910402602001604051908101604052809291908181526020018280546104fe90610d18565b801561054b5780601f106105205761010080835404028352916020019161054b565b820191906000526020600020905b81548152906001019060200180831161052e57829003601f168201915b505050505081525050815260200190600101906102e9565b50505050905080868151811061057c5761057b610cba565b5b60200260200101516000015181878151811061059b5761059a610cba565b5b6020026020010151602001518288815181106105ba576105b9610cba565b5b6020026020010151604001518389815181106105d9576105d8610cba565b5b6020026020010151606001519450945094509450509193509193565b6000600154905090565b600060405180608001604052808681526020018581526020018481526020018381525090506000819080600181540180825580915050600190039060005260206000209060040201600090919091909150600082015181600001908051906020019061066c9291906106e5565b5060208201518160010190805190602001906106899291906106e5565b5060408201518160020190805190602001906106a69291906106e5565b5060608201518160030190805190602001906106c39291906106e5565b505050600160008154809291906106d990610c72565b91905055505050505050565b8280546106f190610d18565b90600052602060002090601f016020900481019282610713576000855561075a565b82601f1061072c57805160ff191683800117855561075a565b8280016001018555821561075a579182015b8281111561075957825182559160200191906001019061073e565b5b509050610767919061076b565b5090565b5b8082111561078457600081600090555060010161076c565b5090565b6000604051905090565b600080fd5b600080fd5b600080fd5b600080fd5b6000601f19601f8301169050919050565b7f4e487b7100000000000000000000000000000000000000000000000000000000600052604160045260246000fd5b6107ef826107a6565b810181811067ffffffffffffffff8211171561080e5761080d6107b7565b5b80604052505050565b6000610821610788565b905061082d82826107e6565b919050565b600067ffffffffffffffff82111561084d5761084c6107b7565b5b610856826107a6565b9050602081019050919050565b82818337600083830152505050565b600061088561088084610832565b610817565b9050828152602081018484840111156108a1576108a06107a1565b5b6108ac848285610863565b509392505050565b600082601f8301126108c9576108c861079c565b5b81356108d9848260208601610872565b91505092915050565b6000602082840312156108f8576108f7610792565b5b600082013567ffffffffffffffff81111561091657610915610797565b5b610922848285016108b4565b91505092915050565b6000819050919050565b61093e8161092b565b82525050565b60006020820190506109596000830184610935565b92915050565b6000806040838503121561097657610975610792565b5b600083013567ffffffffffffffff81111561099457610993610797565b5b6109a0858286016108b4565b925050602083013567ffffffffffffffff8111156109c1576109c0610797565b5b6109cd858286016108b4565b9150509250929050565b6109e08161092b565b81146109eb57600080fd5b50565b6000813590506109fd816109d7565b92915050565b600060208284031215610a1957610a18610792565b5b6000610a27848285016109ee565b91505092915050565b600081519050919050565b600082825260208201905092915050565b60005b83811015610a6a578082015181840152602081019050610a4f565b83811115610a79576000848401525b50505050565b6000610a8a82610a30565b610a948185610a3b565b9350610aa4818560208601610a4c565b610aad816107a6565b840191505092915050565b60006080820190508181036000830152610ad28187610a7f565b90508181036020830152610ae68186610a7f565b90508181036040830152610afa8185610a7f565b90508181036060830152610b0e8184610a7f565b905095945050505050565b60008060008060808587031215610b3357610b32610792565b5b600085013567ffffffffffffffff811115610b5157610b50610797565b5b610b5d878288016108b4565b945050602085013567ffffffffffffffff811115610b7e57610b7d610797565b5b610b8a878288016108b4565b935050604085013567ffffffffffffffff811115610bab57610baa610797565b5b610bb7878288016108b4565b925050606085013567ffffffffffffffff811115610bd857610bd7610797565b5b610be4878288016108b4565b91505092959194509250565b600081905092915050565b6000610c0682610a30565b610c108185610bf0565b9350610c20818560208601610a4c565b80840191505092915050565b6000610c388284610bfb565b915081905092915050565b7f4e487b7100000000000000000000000000000000000000000000000000000000600052601160045260246000fd5b6000610c7d8261092b565b91507fffffffffffffffffffffffffffffffffffffffffffffffffffffffffffffffff8203610caf57610cae610c43565b5b600182019050919050565b7f4e487b7100000000000000000000000000000000000000000000000000000000600052603260045260246000fd5b7f4e487b7100000000000000000000000000000000000000000000000000000000600052602260045260246000fd5b60006002820490506001821680610d3057607f821691505b602082108103610d4357610d42610ce9565b5b50919050565b60008190508160005260206000209050919050565b60008154610d6b81610d18565b610d758186610bf0565b94506001821660008114610d905760018114610da157610dd4565b60ff19831686528186019350610dd4565b610daa85610d49565b60005b83811015610dcc57815481890152600182019150602081019050610dad565b838801955050505b50505092915050565b6000610de98284610d5e565b91508190509291505056fea2646970667358221220a06bc35a13d1ca00fd83b03f4d2edc367f7dffbc5a1d2566656980d7448cc29564736f6c634300080d0033",
  "immutableReferences": {},
  "source": "// SPDX-License-Identifier: GPL-3.0\r\n\r\npragma solidity >=0.7.0 <0.9.0;\r\n\r\ncontract Cert {\r\n    struct Student {\r\n        string  id;\r\n        string name;\r\n        string  courseName;\r\n        string joiningDate;\r\n    }\r\n\r\n    Student[] students;\r\n\r\n    // mapping(uint => Student) public Students;\r\n\r\n    uint numStudents;\r\n\r\n    mapping(string => uint) public count;\r\n\r\n\r\n    function enrollStudent(string memory sid, string memory sname, string memory scourse, string memory jdate) public {\r\n        Student memory s  = Student(sid, sname, scourse, jdate);\r\n        students.push(s);\r\n        numStudents++;\r\n    }\r\n\r\n    function getStudentDetails(uint _id) public view returns(string memory, string memory, string memory, string memory) {\r\n        Student[] memory _students = students;\r\n        return (_students[_id].id, _students[_id].name, _students[_id].courseName, _students[_id].joiningDate);\r\n    }\r\n\r\n    function getNumStudents() public view returns(uint) {\r\n        return numStudents;\r\n    }\r\n\r\n    function upload(string memory _id, string memory _cname) public  {\r\n        count[_id]++;\r\n        if(count[_id] > 1) {\r\n        for(uint i = 0; i< students.length; i++) {\r\n    \r\n            require(keccak256(abi.encodePacked(students[i].id)) != keccak256(abi.encodePacked(_id)) && keccak256(abi.encodePacked(students[i].courseName)) != keccak256(abi.encodePacked(_cname)));\r\n        }\r\n        }\r\n    } \r\n\r\n}",
  "sourcePath": "C:\\Users\\chari\\OneDrive\\Desktop\\Major Project - Copy - Copy\\contracts\\Cert.sol",
  "compiler": {
    "name": "solc",
    "version": "0.8.13+commit.abaa5c0e.Emscripten.clang"
  },
  "schemaVersion": "3.4.7",
  "updatedAt": "2022-06-03T13:59:23.988Z",
  "networkType": "ethereum",
  "devdoc": {
    "kind": "dev",
    "methods": {},
    "version": 1
  },
  "userdoc": {
    "kind": "user",
    "methods": {},
    "version": 1
  }
}